:020000040800F2
:1000000000000520C15A000861550008635500082A
:100010006555000867550008695500080000000094
:100020000000000000000000000000006B55000808
:100030006D550008000000006F550008715500085C
:10004000115B0008115B0008115B0008115B0008E0
:10005000115B0008115B0008115B0008115B0008D0
:10006000115B0008115B0008115B0008115B0008C0
:10007000115B0008115B0008115B0008115B0008B0
:10008000115B0008115B0008115B0008115B0008A0
:10009000115B0008115B0008115B0008115B000890
:1000A000115B0008115B0008115B0008115B000880
:1000B000115B0008115B0008115B0008115B000870
:1000C000115B0008115B0008115B0008115B000860
:1000D000115B0008115B0008115B0008115B000850
:1000E000115B0008115B0008115B0008115B000840
:1000F000115B0008115B0008115B0008115B000830
:10010000115B0008115B0008115B0008115B00081F
:10011000115B0008115B0008115B0008115B00080F
:10012000115B0008115B0008115B0008115B0008FF
:10013000115B0008115B0008115B0008115B0008EF
:10014000115B0008115B0008115B00087D55000879
:10015000115B0008115B0008115B0008115B0008CF
:10016000115B0008115B0008115B0008115B0008BF
:10017000115B0008115B0008115B00080000000023
:10018000115B0008115B0008115B0008115B00089F
:10019000115B0008115B0008115B0008115B00088F
:1001A000115B0008115B0008115B0008115B00087F
:1001B000115B0008115B0008115B0008115B00086F
:0801C000115B0008115B00084F
:1001D00010B5054C237833B9044B13B10448AFF381
:1001E00000800123237010BD3402002000000000B5
:1001F000FCFA000808B5034B1BB103490348AFF3F1
:10020000008008BD0000000038020020FCFA000851
:1002100001F0FF01102A2BDB10F0070F08D010F8B7
:10022000013B013A8B422DD010F0070F42B3F6D1BB
:10023000F0B441EA012141EA014122F007047FF0D4
:1002400000070023F0E80256083C85EA010586EA2B
:10025000010685FA47F5A3FA87F586FA47F6A5FA67
:1002600087F68EB9EED1F0BC01F0FF0102F0070273
:1002700032B110F8013B013A83EA010313B1F8D11E
:100280000020704701387047002D06BF35460338FF
:10029000073815F0010F07D1013015F4807F02BF38
:1002A000013015F4C03F0130F0BC0138704700BF89
:1002B00081F0004102E000BF83F0004330B54FEA17
:1002C00041044FEA430594EA050F08BF90EA020F84
:1002D0001FBF54EA000C55EA020C7FEA645C7FEA17
:1002E000655C00F0E2804FEA5454D4EB5555B8BF3A
:1002F0006D420CDD2C4480EA020281EA030382EAAB
:10030000000083EA010180EA020281EA0303362D3C
:1003100088BF30BD11F0004F4FEA01314FF4801C0F
:100320004CEA113102D0404261EB410113F0004F21
:100330004FEA03334CEA133302D0524263EB4303D8
:1003400094EA050F00F0A780A4F10104D5F1200E76
:100350000DDB02FA0EFC22FA05F2801841F10001D1
:1003600003FA0EF2801843FA05F359410EE0A5F1A5
:1003700020050EF1200E012A03FA0EFC28BF4CF0D6
:10038000020C43FA05F3C01851EBE37101F000458C
:1003900007D54FF0000EDCF1000C7EEB00006EEB99
:1003A0000101B1F5801F1BD3B1F5001F0CD3490823
:1003B0005FEA30004FEA3C0C04F101044FEA44527A
:1003C00012F5800F80F09A80BCF1004F08BF5FEA01
:1003D000500C50F1000041EB045141EA050130BDE1
:1003E0005FEA4C0C404141EB010111F4801FA4F184
:1003F0000104E9D191F0000F04BF01460020B1FAD9
:1004000081F308BF2033A3F10B03B3F120020CDA10
:100410000C3208DD02F1140CC2F10C0201FA0CF0EE
:1004200021FA02F10CE002F11402D8BFC2F1200C53
:1004300001FA02F120FA0CFCDCBF41EA0C01904009
:10044000E41AA2BF01EB0451294330BD6FEA040452
:100450001F3C1CDA0C340EDC04F11404C4F120023D
:1004600020FA04F001FA02F340EA030021FA04F34F
:1004700045EA030130BDC4F10C04C4F1200220FAA6
:1004800002F001FA04F340EA0300294630BD21FAE4
:1004900004F0294630BD94F0000F83F4801306BFAA
:1004A00081F480110134013D4EE77FEA645C18BF9E
:1004B0007FEA655C29D094EA050F08BF90EA020F35
:1004C00005D054EA000C04BF1946104630BD91EA2D
:1004D000030F1EBF0021002030BD5FEA545C05D130
:1004E0004000494128BF41F0004130BD14F580046F
:1004F0003CBF01F5801130BD01F0004545F0FE41E3
:1005000041F470014FF0000030BD7FEA645C1ABF17
:10051000194610467FEA655C1CBF0B46024650EA4E
:10052000013406BF52EA033591EA030F41F400217A
:1005300030BD00BF90F0000F04BF0021704730B500
:100540004FF4806404F132044FF000054FF00001D5
:1005500050E700BF90F0000F04BF0021704730B596
:100560004FF4806404F1320410F0004548BF40426B
:100570004FF000013EE700BF42004FEAE2014FEAC0
:1005800031014FEA02701FBF12F07F4393F07F4F9B
:1005900081F06051704732F07F4208BF704793F09E
:1005A0007F4F04BF41F40021704730B54FF46074B1
:1005B00001F0004521F000411CE700BF50EA0102B4
:1005C00008BF704730B54FF000050AE050EA01025D
:1005D00008BF704730B511F0004502D5404261EBCD
:1005E00041014FF4806404F132045FEA915C3FF40E
:1005F000D8AE4FF003025FEADC0C18BF03325FEAAB
:10060000DC0C18BF033202EBDC02C2F1200300FA5B
:1006100003FC20FA02F001FA03FE40EA0E0021FA80
:1006200002F11444BDE600BF70B54FF0FF0C4CF46E
:10063000E06C1CEA11541DBF1CEA135594EA0C0F20
:1006400095EA0C0F00F0DEF82C4481EA030621EA5B
:100650004C5123EA4C5350EA013518BF52EA033596
:1006600041F4801143F4801338D0A0FB02CE4FF048
:100670000005E1FB02E506F00042E0FB03E54FF078
:100680000006E1FB03569CF0000F18BF4EF0010E70
:10069000A4F1FF04B6F5007F64F5407404D25FEA6C
:1006A0004E0E6D4146EB060642EAC62141EA55511F
:1006B0004FEAC52040EA5E504FEACE2EB4F1FD0C61
:1006C00088BFBCF5E06F1ED8BEF1004F08BF5FEADF
:1006D000500E50F1000041EB045170BD06F0004691
:1006E00046EA010140EA020081EA0301B4EB5C043E
:1006F000C2BFD4EB0C0541EA045170BD41F4801136
:100700004FF0000E013C00F3AB8014F1360FDEBF5A
:10071000002001F0004170BDC4F10004203C35DA36
:100720000C341BDC04F11404C4F1200500FA05F3B9
:1007300020FA04F001FA05F240EA020001F000425A
:1007400021F0004110EBD37021FA04F642EB0601D0
:100750005EEA430E08BF20EAD37070BDC4F10C04FA
:10076000C4F1200500FA04F320FA05F001FA04F2BE
:1007700040EA020001F0004110EBD37041F10001AA
:100780005EEA430E08BF20EAD37070BDC4F12005B5
:1007900000FA05F24EEA020E20FA04F301FA05F21D
:1007A00043EA020321FA04F001F0004121FA04F2C5
:1007B00020EA020000EBD3705EEA430E08BF20EA95
:1007C000D37070BD94F0000F0FD101F000464000CF
:1007D00041EB010111F4801F08BF013CF7D041EA51
:1007E000060195F0000F18BF704703F00046520055
:1007F00043EB030313F4801F08BF013DF7D043EA26
:100800000603704794EA0C0F0CEA135518BF95EADB
:100810000C0F0CD050EA410618BF52EA4306D1D162
:1008200081EA030101F000414FF0000070BD50EA81
:10083000410606BF1046194652EA430619D094EA0B
:100840000C0F02D150EA013613D195EA0C0F05D1F5
:1008500052EA03361CBF104619460AD181EA030149
:1008600001F0004141F0FE4141F470014FF0000001
:1008700070BD41F0FE4141F4780170BD70B54FF09C
:10088000FF0C4CF4E06C1CEA11541DBF1CEA13551C
:1008900094EA0C0F95EA0C0F00F0A7F8A4EB0504FE
:1008A00081EA030E52EA03354FEA013100F08880F5
:1008B0004FEA03334FF0805545EA131343EA1263BE
:1008C0004FEA022245EA111545EA10654FEA002673
:1008D0000EF000419D4208BF964244F1FD0404F52C
:1008E000407402D25B084FEA3202B61A65EB030588
:1008F0005B084FEA32024FF480104FF4002CB6EB45
:10090000020E75EB030E22BFB61A754640EA0C00C4
:100910005B084FEA3202B6EB020E75EB030E22BF04
:10092000B61A754640EA5C005B084FEA3202B6EB45
:10093000020E75EB030E22BFB61A754640EA9C0004
:100940005B084FEA3202B6EB020E75EB030E22BFD4
:10095000B61A754640EADC0055EA060E18D04FEA92
:10096000051545EA16754FEA06164FEAC30343EA32
:1009700052734FEAC2025FEA1C1CC0D111F4801FFF
:100980000BD141EA00014FF000004FF0004CB6E7F8
:1009900011F4801F04BF01430020B4F1FD0C88BF97
:1009A000BCF5E06F3FF6AFAEB5EB030C04BFB6EBA2
:1009B000020C5FEA500C50F1000041EB045170BD95
:1009C0000EF0004E4EEA113114EB5C04C2BFD4EBC2
:1009D0000C0541EA045170BD41F480114FF0000E46
:1009E000013C90E645EA060E8DE60CEA135594EAC2
:1009F0000C0F08BF95EA0C0F3FF43BAF94EA0C0FC5
:100A00000AD150EA01347FF434AF95EA0C0F7FF439
:100A100025AF104619462CE795EA0C0F06D152EA8D
:100A200003353FF4FDAE1046194622E750EA410671
:100A300018BF52EA43067FF4C5AE50EA41047FF482
:100A40000DAF52EA43057FF4EBAE12E74FEA4102E5
:100A500012F5001215D211D56FF47873B3EB625210
:100A600012D94FEAC12343F0004343EA505311F037
:100A7000004F23FA02F018BF404270474FF00000C9
:100A8000704750EA013005D111F0004008BF6FF007
:100A9000004070474FF00000704700BF4FEA41022E
:100AA000B2F1E04324BFB3F5001CDCF1FE5C0DD9CC
:100AB00001F0004C4FEAC0024CEA5070B2F1004F16
:100AC00040EB830008BF20F00100704711F0804F19
:100AD00021D113F13872BCBF01F00040704741F4DE
:100AE00080114FEA5252C2F11802C2F1200C10FAE2
:100AF0000CF320FA02F018BF40F001004FEAC123C6
:100B00004FEAD32303FA0CFC40EA0C0023FA02F369
:100B10004FEA4303CCE77FEA625307D150EA01333F
:100B20001EBF4FF0FE4040F44000704701F000400F
:100B300040F0FE4040F40000704700BF53B94AB98E
:100B4000002908BF00281CBF4FF0FF314FF0FF30D5
:100B500000F072B9ADF1080C6DE904CE00F006F8B2
:100B6000DDF804E0DDE9022304B070472DE9F04729
:100B7000089E04468846002B4BD18A42154667D909
:100B8000B2FA82F24AB1C2F1200701FA02F320FA66
:100B900007F7954047EA030894404FEA154E230CA7
:100BA000B8FBFEF71FFA85FC0EFB178843EA0843E3
:100BB00007FB0CF1994209D9EB1807F1FF3080F0DF
:100BC0001B81994240F21881023F2B445B1AA4B268
:100BD000B3FBFEF00EFB103344EA034400FB0CFCB5
:100BE000A44509D92C1900F1FF3380F00781A445F1
:100BF00040F2048102382C4440EA0740A4EB0C0484
:100C000000271EB1D4400023C6E900433946BDE8A1
:100C1000F0878B4209D9002E00F0EB800027C6E94F
:100C2000000138463946BDE8F087B3FA83F7002F54
:100C300047D18B4202D3824200F2FA80841A61EBE0
:100C4000030301209846002EE0D0C6E90048DDE706
:100C500002B9FFDEB2FA82F2002A40F08F80491B0F
:100C60004FEA154E1FFA85F80127B1FBFEFC230C55
:100C70000EFB1C1143EA014308FB0CF1994207D912
:100C8000EB180CF1FF3002D2994200F2CD8084467D
:100C9000591AA3B2B1FBFEF00EFB101443EA044450
:100CA00008FB00F8A04507D92C1900F1FF3302D248
:100CB000A04500F2B6801846A4EB080440EA0C40B8
:100CC0009FE7C7F1200CBB4022FA0CFE4EEA030E50
:100CD00001FA07F420FA0CF521FA0CF34FEA1E484A
:100CE0002543B3FBF8F92C0C08FB19331FFA8EFAD5
:100CF00044EA034309FB0AF49C4202FA07F200FAB1
:100D000007F10BD91EEB030309F1FF3080F0878058
:100D10009C4240F28480A9F1020973441B1BADB2CE
:100D2000B3FBF8F008FB103345EA034400FB0AFA72
:100D3000A24508D91EEB040400F1FF336BD2A24593
:100D400069D90238744440EA0940A0FB0289A4EB47
:100D50000A044C45C2464B4654D351D0002E69D0AC
:100D6000B1EB0A0564EB030404FA0CFCFD40FC4003
:100D70004CEA0505C6E90054002747E7C2F1200305
:100D800020FA03F7954001FA02F021FA03F34FEA43
:100D9000154E3843010CB3FBFEF71FFA85F80EFB26
:100DA000173341EA034107FB08F38B4204FA02F4CC
:100DB00007D9691807F1FF3C2FD28B422DD9023F8A
:100DC0002944CB1A81B2B3FBFEF00EFB103341EA8B
:100DD000034100FB08F38B4207D9691800F1FF3C7F
:100DE00017D28B4215D902382944C91A40EA07475D
:100DF0003BE73746304609E70746E7E61846FBE695
:100E00004145ABD2B8EB020A69EB0E02013813463A
:100E1000A4E76046E9E7184695E76746D1E78146CB
:100E20007CE702382C4447E7ACF1020C2B442FE757
:100E3000384608E73746E9E6704700BF2DE9F0433A
:100E40008BB0364B1A6B42F480521A631A6B02F461
:100E500080520192019A1A6B42F010021A631A6BC7
:100E600002F010020292029A1A6B42F020021A63F8
:100E70001A6B02F020020392039A1A6B42F04002AE
:100E80001A631B6B03F040030493049B244C002261
:100E90004FF47841204600F07DFCDFF88890002276
:100EA000FF21484600F076FCDFF87C8000224FF4FA
:100EB0007F41404600F06EFC4FF4784305930127D4
:100EC0000697002607960325089505A9204600F0F9
:100ED0006DFBFF23059306970796089505A94846DD
:100EE00000F064FB4FF47F4305930697079608953F
:100EF00005A9404600F05AFB4FF40053A3614FF49C
:100F00000063A3614FF48053A3614FF40043A361D6
:100F10004FF48043A3610BB0BDE8F083003802407A
:100F200000140240001802400010024010B4C343F5
:100F300011494FF07F428A61104A4FF0005494618A
:100F40004FF0004494611B0403F47F03C4B22343B5
:100F50000B4CA3614B6900F47F40184348614FF08C
:100F6000006393614FF4006393614FF40053936106
:100F70005DF8044B704700BF0010024000140240AF
:100F80000018024010B4C34311494FF07F428A61F8
:100F9000104A4FF0005494614FF4004494611B04D4
:100FA00003F47F03C4B223430B4CA3614B6900F4E9
:100FB0007F40184348614FF0006393614FF4006332
:100FC00093614FF4005393615DF8044B704700BF89
:100FD00000100240001402400018024038B50546D7
:100FE0000C4604E035F8020BFFF7CCFF013C002C67
:100FF000F8D138BD10B5544C4FF08043A3614FF485
:10100000FA7000F053FA4FF48043A361642000F0BB
:101010004DFA0120FFF78AFF0A2000F047FAE2208C
:10102000FFF784FF1D20FFF7ADFF0220FFF7AAFFA7
:101030000420FFF7A7FFE020FFF778FF0120FFF76C
:10104000A1FF642000F032FAE020FFF76FFF0320D9
:10105000FFF798FFB020FFF769FF2020FFF792FF0E
:101060000020FFF78FFF0320FFF78CFF1F20FFF703
:1010700089FF0120FFF786FFDF20FFF783FF0020B5
:10108000FFF780FFF020FFF751FF0320FFF77AFF03
:10109000E620FFF74BFF0420FFF774FF0A20FFF75D
:1010A00071FF5F20FFF76EFFB420FFF73FFF0320C3
:1010B000FFF768FF5420FFF765FF0020FFF762FF8E
:1010C0002C20FFF75FFF0220FFF75CFF0020FFF7F7
:1010D00059FF0020FFF756FF0020FFF753FFB6200F
:1010E000FFF724FF0120FFF74DFFEE20FFF74AFF37
:1010F0000020FFF747FF0C20FFF744FF0620FFF713
:1011000041FF0020FFF73EFF0020FFF73BFF2920B3
:10111000FFF70CFF0A2000F0C9F9BE20FFF706FF19
:101120000420FFF72FFFC020FFF72CFF0120FFF75F
:1011300029FF4020FFF726FF0020FFF723FF0020B4
:10114000FFF720FF10BD00BF0014024084B008B5B7
:101150000DF1080C8CE80F004C22614603480EF09C
:10116000BEF8BDE8084004B0704700BF24950120D8
:1011700000B585B08DF80C008DF80D104FF440537C
:101180000093022303AA8821034800F0FDFC0028F5
:10119000F4D105B05DF804FB2495012000B587B0BB
:1011A0008DF80F0000238DF814304FF44053009356
:1011B00001230DF10F0288210A4800F0E5FC002808
:1011C000F3D14FF440530093012305AA8821054829
:1011D00000F098FD0028F4D19DF8140007B05DF8E8
:1011E00004FB00BF2495012000B587B08DF80F00E7
:1011F00000238DF814308DF8153042F210730093EF
:1012000001230DF10F0288210C4800F0BDFC0028DD
:10121000F3D142F210730093022305AA88210748F4
:1012200000F070FD0028F4D19DF814009DF81530F1
:1012300043EA002007B05DF804FB00BF24950120BD
:1012400008B502210320FFF793FF0A2000F02EF9D2
:1012500004210846FFF78CFF03210A20FFF788FFCF
:1012600048212020FFF784FF022000F01FF9012110
:101270002120FFF77DFF00211720FFF779FFA32131
:101280004120FFF775FF01214A20FFF771FF01217F
:101290004B20FFF76DFF00214B20FFF769FF07216F
:1012A0005620FFF765FF01215820FFF761FF30212D
:1012B0004020FFF75DFF31214020FFF759FFFF215C
:1012C0000B20FFF755FF01210920FFF751FF08BD53
:1012D00008B54B20FFF762FF10F0200F12D0FF215E
:1012E0000B20FFF745FF4020FFF758FF10F0800F5D
:1012F00025D10023134A1380134A1380134A138005
:1013000001201BE04D20FFF76FFF0E4B18804F2090
:10131000FFF76AFF0C4B18805120FFF73FFF0B4B84
:10132000188001214B20FFF723FF00214B20FFF7FE
:101330001FFFFF210B20FFF71BFF012008BD00202E
:10134000FCE700BF5002002052020020540200209F
:1013500008B5134B1B8807EE903AF8EE677A9FEDBD
:10136000117A77EEC77A17EE900AFFF705F9002297
:101370000D4BFFF759F908A3D3E90023FFF77EFAD5
:10138000FFF78CFB07EE900AFCEEE77A17EE903A37
:1013900098B208BDAFF300800000000000C4AD406B
:1013A000500200200000DC420000894000000000E4
:1013B00008B5134B1B8807EE903AF8EE677A9FED5D
:1013C000117A77EEC77A17EE900AFFF7D5F8002268
:1013D0000D4BFFF729F908A3D3E90023FFF74EFAD5
:1013E000FFF75CFB07EE900AFCEEE77A17EE903A07
:1013F00098B208BDAFF300800000000000EAAB40E7
:10140000520200200000C84300007E40014B1888B3
:10141000704700BF50020020014B1888704700BF82
:101420005202002010B504460E4B18784FF47A7320
:10143000B3FBF0F30C4A1068B0FBF3F000F09CF83B
:1014400068B90F2C01D901200AE0002221464FF093
:10145000FF3000F051F8054B1C60002000E0012037
:1014600010BD00BF00000020180100200400002073
:1014700008B5032000F02EF80020FFF7D3FF03F09B
:10148000F9FF002008BD0000034A1168034B1B78D8
:101490000B441360704700BF7095012000000020CE
:1014A000014B1868704700BF7095012038B504469D
:1014B000FFF7F6FF0546B4F1FF3F02D0044B1B785F
:1014C0001C44FFF7EDFF401BA042FAD338BD00BF1C
:1014D000000000200649CB6823F4E0631B041B0CCA
:1014E000000200F4E0600343024A1A43CA607047F6
:1014F00000ED00E00000FA0530B4154BDB68C3F3E3
:101500000223C3F10704042C28BF04241D1D062D4B
:1015100014D9033B4FF0FF3505FA04F421EA040126
:10152000994005FA03F322EA03031943002807DB75
:101530000901C9B2074B195430BC70470023E9E7D1
:1015400000F00F000901C9B2034B1954F4E700BFC2
:1015500000ED00E000E400E014ED00E0002807DB0F
:1015600000F01F02400901239340024A42F8203054
:10157000704700BF00E100E00138B0F1807F0AD27F
:10158000064B5860064AF02182F82310002098602C
:1015900007221A6070470120704700BF10E000E08A
:1015A00000ED00E008B503F089FE08BD00230F2B15
:1015B00000F2E780F0B482B05EE086685F0003244A
:1015C000BC4026EA0406CC68BC40344384604668CC
:1015D00026EA02064C68C4F300129A403243426085
:1015E00057E0DC08083450F8247003F00702960036
:1015F0000F22B24027EA02070A69B2403A4340F894
:1016000024205AE0092200E00022B2403A4302348A
:101610005C4E46F824205C4A9468EA4302EA0406D9
:101620004F6817F4801F01D045EA0406564CA660A7
:10163000E46802EA04064F6817F4001F01D045EA87
:101640000406514CE660646802EA04064F6817F429
:10165000003F01D045EA04064B4C666024682240F6
:101660004E6816F4803F01D045EA0402464C2260E1
:1016700001330F2B00F2828001229A400C6804EAA9
:101680000205AA42F4D14C6804F00304013C012C89
:1016900093D94A6802F00302032A09D0C4685E00A5
:1016A0000322B24024EA02048A68B2402243C260A4
:1016B0004A6802F00302022A93D004685E00032203
:1016C000B24024EA02044A6802F00302B240224314
:1016D00002604A6812F4403FCAD02C4A546C44F469
:1016E00080445464526C02F480420192019A9C0836
:1016F000A61C244A52F8267003F0030296000F221B
:10170000B24027EA0207224A90423FF47DAF02F539
:101710008062904222D002F58062904220D002F591
:10172000806290421ED002F5806290421CD002F589
:10173000806290421AD002F58062904218D002F581
:101740008062904216D002F58062904214D002F579
:10175000806290423FF456AF0A2256E7012254E7D6
:10176000022252E7032250E704224EE705224CE70B
:1017700006224AE7072248E7082246E702B0F0BC03
:101780007047704700380140003C0140003802407B
:101790000000024012B909048161704781617047FD
:1017A00003689A6912F0020F01D000229A6203685E
:1017B0009A6912F0010F03D19A6942F001029A610D
:1017C000704710B4019CC1F3090141EA0241194379
:1017D000214321F0004102685368640D04F48064E1
:1017E00044F07F7444F4583444F47F7444F00304A8
:1017F00023EA0404214351605DF8044B7047F8B5B7
:101800000446174603689A6912F0100F4AD00E4634
:101810001022DA61002523689A6912F0200F3AD16C
:10182000002D38D1B6F1FF3FF5D0FFF739FEC01BD0
:10183000B04201D8002EEED121684A6802F48042FD
:1018400094F84230DBB2886910F4004F0BD0203B93
:1018500018BF01233AB933B14B6843F480434B605E
:10186000FFF71EFE074623689B6913F0200FD2D1B5
:10187000FFF716FEC01B1928F5D9636C43F020034F
:101880006364202384F84130002384F8423084F8D4
:1018900040300125E7E7002D40D12022DA610426FF
:1018A000012501E0002635462268936913F4807F04
:1018B00005D046F001064FF48071D161012513F483
:1018C000806F06D046F0080622684FF48061D1612F
:1018D000012513F4007F23D046F0020623684FF45D
:1018E0000072DA6101252046FFF75AFF226853682B
:1018F00023F0FF7323F48B3323F4FF7323F00103EE
:101900005360636C1E436664202384F841300023D7
:1019100084F8423084F840302846F8BD0426C3E7F6
:10192000002DE0D1F8E770B504460D461646236851
:101930009B6913F0020F1DD1324629462046FFF75E
:101940005EFFC8B9B5F1FF3FF1D0FFF7A9FD801BDD
:10195000A84201D8002DEAD1636C43F020036364F0
:10196000202384F84130002384F8423084F840304A
:10197000012000E0002070BD0120FCE7F8B505461D
:101980000F4616461C462B689B6937EA03030CBFBB
:1019900001230023B34218D1B4F1FF3FF3D0FFF786
:1019A0007FFD069BC01AA04201D8002CEBD16B6CC6
:1019B00043F020036B64202385F84130002385F831
:1019C000423085F84030012000E00020F8BD70B5BD
:1019D00005460C4616462B689B6913F0200F1AD15A
:1019E000324621462846FFF70AFFB0B9FFF758FDF7
:1019F000801BA04201D8002CEDD16B6C43F020037A
:101A00006B64202385F84130002385F8423085F847
:101A10004030012070BD0020FCE70120FAE770B5DE
:101A200004460D46164623689B6913F0040F49D1FE
:101A3000324629462046FFF7E2FE0146002843D100
:101A400023689A6912F0200F13D1FFF729FD801B3C
:101A5000A84201D8002DE6D1636C43F020036364F3
:101A6000202384F84130002384F8403001210846C7
:101A700070BD9A6912F0040F02D0228D002AF6D1AF
:101A80009A6912F0100F1AD01022DA6104236364ED
:101A900023682022DA6121684B6823F0FF7323F466
:101AA0008B3323F4FF7323F001034B6084F8412050
:101AB000002384F8423084F840300121D7E7002326
:101AC0006364E5E70021D2E70121D0E7002857D081
:101AD00010B5044690F84130002B41D0242384F8FF
:101AE00041302268136823F00103136063682268A1
:101AF00023F0706313612268936823F400439360BA
:101B0000E368012B31D0A368226843F40443936057
:101B1000E368022B2FD0226851681A4B0B435360A5
:101B20002268D36823F40043D360236962691343B6
:101B3000A169226843EA0123D360E369216A22682C
:101B40000B4313602268136843F001031360002005
:101B50006064202384F84130206384F8420010BD83
:101B600080F8403003F09EFCB8E7A368226843F495
:101B700000439360CCE723684FF400625A60CAE7E1
:101B800001207047008000022DE9F04383B090F8F7
:101B90004150EDB2202D40F0A48090F84040012C3F
:101BA00000F0A480984617460E4604464FF00109FF
:101BB00080F84090FFF774FC0546009019234A46D0
:101BC0004FF400412046FFF7D9FE002840F09080F6
:101BD000212384F84130102384F8423000236364C9
:101BE0006762A4F82A806363638D9BB2FF2B0AD9D6
:101BF000FF222285424B00934FF0807331462046EE
:101C0000FFF7DFFD18E0628D92B222853C4B009316
:101C10004FF00073D2B231462046FFF7D2FD0BE001
:101C2000628D92B22285002300934FF00073D2B2EE
:101C300031462046FFF7C5FD638D9BB2002B33D0A4
:101C40002A460A992046FFF76EFE002852D1626AA2
:101C5000236812789A62636A01336362638D013B81
:101C60009BB26385238D013B9BB22385628D92B22B
:101C7000002AE1D0002BDFD100950A9B00228021B1
:101C80002046FFF77BFE002836D1638D9BB2FF2BE9
:101C9000C6D9FF222285002300934FF0807331467E
:101CA0002046FFF78EFDC7E72A460A992046FFF730
:101CB0008EFE034610BB22682021D1612068426855
:101CC00022F0FF7222F48B3222F4FF7222F0010222
:101CD000426084F84110002284F8422084F84020B9
:101CE00000E00223184603B0BDE8F0830223F9E7C1
:101CF0000123F7E70123F5E70123F3E70123F1E7E8
:101D0000002000802DE9F04383B090F84150EDB2FF
:101D1000202D40F0A48090F84040012C00F0A480D9
:101D2000984617460E4604464FF0010980F8409049
:101D3000FFF7B6FB0546009019234A464FF40041D1
:101D40002046FFF71BFE002840F09080222384F8F5
:101D50004130102384F84230002363646762A4F8A2
:101D60002A806363638D9BB2FF2B0AD9FF222285F1
:101D7000424B00934FF0807331462046FFF721FD20
:101D800018E0628D92B222853C4B00934FF00073B5
:101D9000D2B231462046FFF714FD0BE0628D92B2BD
:101DA0002285002300934FF00073D2B231462046C3
:101DB000FFF707FD638D9BB2002B33D02A460A99AB
:101DC0002046FFF72CFE002852D123685A6A636A26
:101DD0001A70636A01336362238D013B9BB22385D2
:101DE000628D013A92B26285628D92B2002AE1D090
:101DF000002BDFD100950A9B002280212046FFF7AF
:101E0000BDFD002836D1638D9BB2FF2BC6D9FF22C2
:101E10002285002300934FF0807331462046FFF760
:101E2000D0FCC7E72A460A992046FFF7D0FD0346B3
:101E300010BB22682021D1612068426822F0FF7225
:101E400022F48B3222F4FF7222F00102426084F805
:101E50004110002284F8422084F8402000E0022350
:101E6000184603B0BDE8F0830223F9E70123F7E742
:101E70000123F5E70123F3E70123F1E700240080C4
:101E800090F84130DBB2202B24D190F84030012B68
:101E900022D0012380F84030242380F841300268AA
:101EA000136823F0010313600268136823F480535E
:101EB000136002681368194311600268136843F0E5
:101EC00001031360202380F84130002380F8403064
:101ED00018467047022070470220704790F8413042
:101EE000DBB2202B22D190F84030012B20D00123EF
:101EF00080F84030242380F841300268136823F0D2
:101F0000010313600268136823F4706343EA01213C
:101F100011600268136843F001031360202380F806
:101F20004130002380F84030184670470220704747
:101F3000022070472DE9F04782B00768CA00521AA4
:101F4000930003445A6D1B6D9A4257D8B8469B1AAA
:101F5000C1EBC104A2000244526C9A4200D31A465B
:101F60000C46064602F1030A4FEA9A0A16E009F106
:101F7000030A4FEA9A0AE3001B1B9D003544A96C33
:101F8000337C00931FFA89F3E2B2384601F028FF50
:101F9000AB6C4B44AB646B6D4B446B6508EB44130B
:101FA00003F510639B699BB2534513D3E3001B1BDE
:101FB0009A003244516D136D99420BD253B15B1AA2
:101FC000C4EBC4018A003244D2F844909945CED380
:101FD0009946CCE7E3001B1B98000644326D736DF5
:101FE0009A420FD804F00F040121A140D7F83448D9
:101FF00024EA0104C7F83448002000E0012002B0C0
:10200000BDE8F0870020FAE7F0B58BB0002800F0BB
:1020100091800446056890F8BD3323B3032384F808
:10202000BD33EB6B13F4807F01D100232361206863
:1020300001F068FC254655F8107B6E460FCD0FC6A3
:102040000FCD0FC695E8030086E80300231D0ECBD5
:10205000384601F09DFB58B1022384F8BD330125B9
:1020600028460BB0F0BD80F8BC3303F00DFBD5E77C
:102070000021206802F0B7F8002315E0D900C81A43
:1020800082002244012082F83D0082F83C30A2F810
:102090004230002082F83F0050649064CA1A9100D8
:1020A000214408650133DBB26568AB42E6D3002307
:1020B00015E0D800C11A8A002244002182F8FD11DF
:1020C00082F8FC3182F8FF11C2F80412C2F808123B
:1020D000C21A90002044C0F810120133DBB29D42B6
:1020E000E7D8254655F8107B6E460FCD0FC60FCDAD
:1020F0000FC695E8030086E80300231D0ECB384683
:1021000001F058FC054660B9002384F838300123FB
:1021100084F8BD33636A012B08D0206802F020F8F0
:102120009EE7022384F8BD33012599E7204600F09D
:10213000BDFCF2E7012593E790F8BC33012B0ED0EC
:1021400010B50446012380F8BC33006801F0D4FBCD
:10215000206801F0F7FF002084F8BC0310BD0220C6
:102160007047000070B504460D460068066C00EB31
:10217000411303F530639A682169012911D0374969
:102180008E4254D03DB9C5EBC50293002344D3F829
:102190001032002B5CD0E9B2204603F0C1FA0020D7
:1021A00070BD12F0080F09D02D498E42F7D912F4F4
:1021B000004FF4D04FF400429A60F0E712F0200F85
:1021C00028D112F0280FEAD125498E4202D912F403
:1021D000004F22D1E900491B8A002244D2F80412A0
:1021E0001B69C3F31203C91AC2F81412D2F80412FD
:1021F000D2F808320B44C2F8083235B9C5EBC50233
:1022000093002344D3F810325BB1E9B2204603F0C7
:1022100087FAC4E720229A60C1E74FF400429A602F
:10222000BDE704F57172012102F01EF8EDE712F42A
:10223000004F09D112F0200F01D020229A60E9B29C
:10224000204603F06DFAAAE74FF400429A60A6E731
:1022500004F57172002102F007F89CE70A31544F2F
:102260000A30544F38B5044603681D6C03EB411126
:10227000D1F8082B0E4B9D4207D901F5306112F4BD
:10228000004F02D04FF400438B60204603F040FA29
:10229000074B9D4202D92369012B01D0002038BD94
:1022A00004F571720121206801F0DEFFF6E700BF3E
:1022B0000A30544F2DE9F84F04460568284601F0CE
:1022C0008EFF08B1BDE8F88F2F460646206801F062
:1022D00055FF0028F6D0206801F050FF10F0020FE3
:1022E00004D02268536903F002035361206801F0AF
:1022F00045FF10F0100F15D02268936923F01003EA
:102300009361D5F8208008F00F09C8F34343022BEE
:1023100000F08580062B00F0A5802268936943F0C9
:1023200010039361206801F029FF10F4002F40F0A2
:10233000AD80206801F022FF10F4802F40F0F18082
:10234000206801F01BFF0028C0F25F81206801F0C7
:1023500015FF10F4006F0AD0D5F8083813F0010FFC
:1023600040F06D812268536903F400635361206873
:1023700001F004FF10F0006F15D02268536903F0DC
:102380000063536194F8F433002B40F05C81012129
:1023900084F8F41323685B6DC3F38303C4F8F83344
:1023A000204603F079FA206801F0E8FE10F4805F1F
:1023B00040F04D81206801F0E1FE10F4005F40F034
:1023C000A581206801F0DAFE10F0080F40F0B68118
:1023D000206801F0D3FE10F4801F40F0B88120681F
:1023E00001F0CCFE10F4001F40F0BB81206801F02A
:1023F000C5FE10F0804F40F0BE81206801F0BEFEA7
:1024000010F0040F3FF45EAF23685D6815F0040F11
:1024100040F0BA81226853682B43536052E747F675
:10242000F07318EA030F3FF478AF4FEAC90BABEB38
:1024300009034FEA830AA2444FEA1818C8F30A02B4
:10244000DAF80812284601F0EBFDC8F30A08DAF8BA
:1024500008324344CAF80832DAF814324344CAF85E
:1024600014325AE7082204F57171284601F0D8FDAC
:10247000C8F30A184FEAC903A3EB09018A002244F2
:10248000D2F814324344C2F8143246E7206801F00F
:1024900079FE8046B14617E007EB49130122C3F8E5
:1024A000082B49462046FFF75DFE1DE007EB491368
:1024B0000822C3F8082B49462046FFF7D3FE16E052
:1024C00009F101094FEA5808B8F1000F3FF431AFA4
:1024D00018F0010FF4D05FFA89F1206801F062FE74
:1024E000824610F0010FD7D11AF0080FDED11AF092
:1024F000100F04D007EB49131022C3F8082B1AF071
:10250000200F04D007EB49132022C3F8082B1AF43C
:10251000005FD5D007EB49134FF40052C3F8082BE6
:10252000CEE7206801F036FE8046B1462AE05946E3
:10253000204603F001F91AF0080F04D007EB491305
:102540000822C3F808291AF0100F04D007EB49132A
:102550001022C3F808291AF0400F04D007EB4913E2
:102560004022C3F808291AF0020F04D007EB4913E0
:102570000222C3F808291AF0800F41D109F101099C
:102580004FEA5808B8F1000F3FF4DAAE18F0010F27
:10259000F4D05FFA89FB5946206801F00CFE8246B0
:1025A00010F0010FC7D009F00F03012101FA03F267
:1025B000D7F8343823EA0203C7F8343807EB491355
:1025C000C3F8081923698B42B1D14FEAC902A2EBC3
:1025D000090293002344596C9A6C0A449A64B9F135
:1025E000000FA4D1C9EBC902930023441B6D002B3B
:1025F0009DD104F571720121206801F035FE96E746
:1026000049462046FFF796FCB8E7D5F8043823F092
:102610000103C5F8043894F8F433012B08D02046A0
:1026200003F0CAF82268536903F0004353618DE652
:10263000002184F8F413204603F02EF9F2E7204637
:1026400003F0A2F88EE6204603F09EF8ABE605F50F
:102650000068D8F8043023F00103C8F804301021D2
:10266000206801F055F91AE007EB46134FF67F3169
:10267000C3F80819D3F8002922F40012C3F800297E
:10268000C3F8081BD3F8002B22F40012C3F8002B68
:10269000D3F8002B42F00062C3F8002B01366368C8
:1026A000B342E1D8D8F81C3043F00113C8F81C300D
:1026B000236BEBB1D8F8843043F00B03C8F88430B7
:1026C000D8F8443043F00B03C8F84430D5F800384C
:1026D00023F4FE63C5F8003804F57172217C20688C
:1026E00001F0C2FD2268536903F48053536161E62F
:1026F000D8F8142042F22B031343C8F81430D8F84A
:10270000103043F00B03C8F81030DFE7206801F009
:102710009BFD206801F012FAE060256800F03AFDA8
:10272000227B0146284601F071F8204603F015F897
:102730002268536903F40053536142E6204603F0D4
:1027400006F82268536903F00803536140E600214C
:10275000204603F03DF82268536903F48013536167
:102760003DE60021204603F02DF82268536903F46A
:10277000001353613AE6204603F030F822685369AB
:1027800003F08043536138E6204603F02DF841E61C
:1027900090F8BC33012B0DD010B50446012380F80E
:1027A000BC3380F83810006801F0BCFC002084F8CD
:1027B000BC0310BD02207047F8B511F0800F28D17E
:1027C00001F00F06F500AF1BBC00274604F5FC74B2
:1027D000044404343E460644002586F8FD5101F0C9
:1027E0000F012170A260E370627802B1E180022BD8
:1027F0001ED090F8BC33012B1DD00546012380F874
:10280000BC332146006801F0A9F9002085F8BC031B
:10281000F8BD01F00F06F500AF1BBC0027463834A9
:10282000044404343E460644012586F83D50D6E76C
:1028300000232371DDE70220EAE738B511F0800FAD
:1028400021D101F00F05EA00541BA3001C4603F53B
:10285000FC730344043325460544002285F8FD211A
:1028600001F00F01197090F8BC23012A1AD0044618
:10287000012280F8BC231946006801F0B7F9002056
:1028800084F8BC0338BD01F00F04E200151BAB0057
:102890001D463833034404332C460444012284F893
:1028A0003D20DDE70220EDE770B501F00F05EE00F9
:1028B000711B8C0004F5FC740444211D761BB400CC
:1028C0000444C4F80822C4F810320023C4F81432B7
:1028D00084F8FD3184F8FC510369012B06D065B101
:1028E000DAB2006801F090FA002070BDC5EBC506B1
:1028F000B4000444C4F80C22F1E7DAB2006801F035
:10290000E3F9F1E701F00F01C1EBC1018B001844BD
:10291000D0F81402704770B501F00F05EE00711B7E
:102920008C0038340444211D761BB4000444A26496
:10293000236500236365012384F83D3084F83C500F
:102940000369012B06D05DB1DAB2006801F05CFAD0
:10295000002070BDC5EBC506B4000444E264F2E794
:10296000DAB2006801F0B0F9F2E738B501F00F050E
:1029700043689D4236D811F0800F20D1CA00541A06
:10298000A3001C4603F5FC730344043322460244AF
:10299000002182F8FD1101229A701D7090F8BC236D
:1029A000012A21D00446012280F8BC231946006880
:1029B00001F05DFB7DB1002084F8BC0313E0EA0068
:1029C000511B8B0019463833034404330144012260
:1029D00081F83D20DFE704F57172217C206801F069
:1029E00043FCE8E7012038BD0220FCE710B501F008
:1029F0000F0443689C422CD811F0800F1DD1E300D6
:102A00001A1B91000A4601F5FC710144043102448D
:102A1000002382F8FD3100238B700C7090F8BC33DA
:102A2000012B18D00446012380F8BC33006801F064
:102A30004BFB002084F8BC030CE0E3001A1B910060
:102A40000A463831014404310244012382F83D3002
:102A5000E1E7012010BD0220FCE730B40468606AA1
:102A600029B10D46A36A00EB134000230CE040EAB5
:102A70000240A06212E003F1400104EB81014968C9
:102A800000EB11400133DBB2691E8B42F3D340EA05
:102A9000024005F13F0104EB81014860002030BC99
:102AA00070470368596200207047000002460368BF
:102AB0000121C0F8FC13002082F8F4039A6942F067
:102AC00000629A61596D024A0A435A65704700BF15
:102AD0000300001010B582B01B4B1A6C42F08052FC
:102AE0001A641B6C03F080530193019B174A13680F
:102AF00043F480331360FEF7D3FC0446134B5B684A
:102B000013F4803F08D1FEF7CBFC001BB0F57A7FB1
:102B1000F4D9032002B010BD0C4A136843F400330B
:102B20001360FEF7BDFC0446084B5B6813F4003FDE
:102B300007D1FEF7B5FC001BB0F57A7FF4D903206E
:102B4000E8E70020E6E700BF0038024000700040E0
:102B5000002800F0098270B582B00446036813F0C3
:102B6000010F29D0A24B9B6803F00C03042B1AD051
:102B70009F4B9B6803F00C03082B0FD06368B3F5E1
:102B8000803F40D0002B54D1994B1A6822F48032F8
:102B90001A601A6822F480221A6039E0944B5B684C
:102BA00013F4800FEAD0924B1B6813F4003F03D05C
:102BB0006368002B00F0DA81236813F0020F75D0F0
:102BC0008B4B9B6813F00C0F5ED0894B9B6803F016
:102BD0000C03082B53D0E368002B00F08A80844A52
:102BE000136843F001031360FEF75AFC0546804B5F
:102BF0001B6813F0020F73D1FEF752FC401B022832
:102C0000F5D90320B5E17A4A136843F480331360A1
:102C100063682BB3FEF744FC0546754B1B6813F441
:102C2000003FC9D1FEF73CFC401B6428F5D90320C6
:102C30009FE1B3F5A02F09D06D4B1A6822F48032C2
:102C40001A601A6822F480221A60E1E7684B1A6859
:102C500042F480221A601A6842F480321A60D7E780
:102C6000FEF71EFC0546624B1B6813F4003FA3D021
:102C7000FEF716FC401B6428F5D9032079E15C4B74
:102C80005B6813F4800FA6D1594B1B6813F0020F39
:102C900004D0E368012B01D001206AE1544A136893
:102CA00023F0F803216943EAC1031360236813F09A
:102CB000080F46D0636983B34D4A536F43F0010355
:102CC0005367FEF7EDFB0546494B5B6F13F0020FB0
:102CD00037D1FEF7E5FB401B0228F5D9032048E178
:102CE000434A136823F0F803216943EAC1031360E0
:102CF000DCE73F4A136823F001031360FEF7D0FBC3
:102D000005463B4B1B6813F0020FCFD0FEF7C8FB04
:102D1000401B0228F5D903202BE1354A536F23F0DD
:102D200001035367FEF7BCFB0546314B5B6F13F0A5
:102D3000020F06D0FEF7B4FB401B0228F5D9032092
:102D400017E1236813F0040F7ED0294B1B6C13F09E
:102D5000805F1ED1264B1A6C42F080521A641B6CA5
:102D600003F080530193019B0125224B1B6813F450
:102D7000807F10D0A368012B21D0002B3CD11C4BAD
:102D80001A6F22F001021A671A6F22F004021A6702
:102D90001AE00025E9E7174A136843F480731360CB
:102DA000FEF77EFB0646134B1B6813F4807FE1D1D0
:102DB000FEF776FB801B6428F5D90320D9E00C4A86
:102DC000136F43F001031367A3685BB3FEF768FB5F
:102DD0000646074B1B6F13F0020F34D1FEF760FB62
:102DE000801B41F288339842F3D90320C1E000BF31
:102DF0000038024000700040052B09D0604B1A6F6C
:102E000022F001021A671A6F22F004021A67DBE748
:102E10005B4B1A6F42F004021A671A6F42F001020C
:102E20001A67D1E7FEF73CFB0646554B1B6F13F0C4
:102E3000020F08D0FEF734FB801B41F28833984222
:102E4000F3D9032095E0FDB9A369002B00F0908031
:102E50004B4A926802F00C02082A58D0022B19D073
:102E6000474A136823F080731360FEF719FB04468A
:102E7000434B1B6813F0007F47D0FEF711FB001B8C
:102E80000228F5D9032074E03D4A136C23F08053E7
:102E90001364D9E73A4A136823F080731360FEF78E
:102EA000FFFA0546364B1B6813F0007F06D0FEF78D
:102EB000F7FA401B0228F5D903205AE0E369226A99
:102EC0001343626A43EA8213A26A5208013A43EA50
:102ED0000243E26A43EA026343F00053284A536024
:102EE000136843F080731360FEF7DAFA0446244B4C
:102EF0001B6813F0007F06D1FEF7D2FA001B0228F0
:102F0000F5D9032035E0002033E0002031E01C4AF1
:102F10005268012B2FD002F48003E1698B4201D06B
:102F2000012026E002F03F03216A8B4201D00120FC
:102F30001FE0616A47F6C0731340B3EB811F01D0F5
:102F4000012016E002F44031A36A5B08013BB1EBBB
:102F5000034F01D001200CE002F07062E36AB2EB93
:102F6000036F0AD0012004E001207047012000E037
:102F7000002002B070BD0120FBE70020F9E700BF90
:102F800000380240264B9B6803F00C03042B44D00E
:102F9000082B01D0234870472DE9F04B204B5A688D
:102FA00002F03F025B6813F4800F13D01C4B59688A
:102FB000C1F3881100231C48A1FB0001FDF7BEFDF1
:102FC000174B5B68C3F3014301335B00B0FBF3F0C5
:102FD000BDE8F08B124B5B68C3F388131E460027D5
:102FE0005C010025E41A65EB0705A90141EA94613B
:102FF000A001001B61EB0501CB0043EA5073C40044
:10300000A01943EB07018B0243EA90538402204648
:1030100019460023FDF792FDD2E70348704700BF31
:10302000003802400024F40040787D01002800F0C0
:10303000A38070B50446524B1B6803F00F038B420C
:103040000CD24F4A136823F00F030B43136013682D
:1030500003F00F038B4201D0012070BD236813F0F1
:10306000020F17D013F0040F04D0464A936843F4BC
:10307000E0539360236813F0080F04D0414A93682B
:1030800043F4604393603F4A936823F0F003A068E1
:10309000034393600D46236813F0010F31D063683A
:1030A000012B20D0022B25D0364A126812F0020FD5
:1030B00064D034498A6822F0030213438B60FEF720
:1030C000EFF906462F4B9B6803F00C036268B3EBE5
:1030D000820F16D0FEF7E4F9801B41F28833984244
:1030E000F0D90320B9E7274A126812F4003FE0D173
:1030F0000120B2E7234A126812F0007FD9D10120E3
:10310000ABE71F4B1B6803F00F03AB420CD91C4A03
:10311000136823F00F032B431360136803F00F03AE
:10312000AB4201D0012098E7236813F0040F06D0CA
:10313000144A936823F4E053E1680B4393602368D7
:1031400013F0080F07D00F4A936823F460432169F6
:1031500043EAC1039360FFF715FF0A4B9B68C3F373
:103160000313094AD35CD840084B1860084B186811
:10317000FEF758F9002070E70120704701206CE746
:10318000003C02400038024078FB00081801002093
:1031900004000020014B1868704700BF1801002090
:1031A000F0B583B00446036813F0010F0CD0B64BA2
:1031B0009A6822F400029A609A68416B0A439A6006
:1031C000436BC3B1002600E00026236813F4002FF0
:1031D00015D0AD4AD2F88C3023F44013E16B0B4389
:1031E000C2F88C30E36BB3F5801F06D0002B00F0E3
:1031F0002981002504E00126E7E70126F6E70025FE
:10320000236813F4801F0FD09F4AD2F88C3023F428
:103210004003216C0B43C2F88C30236CB3F5800F54
:1032200000F0128103B90125236813F0807F00D0DC
:10323000012613F0200F40F00981236813F0100FCE
:103240000CD0914BD3F88C2022F08072C3F88C20E4
:10325000D3F88C20A16B0A43C3F88C20236813F4A5
:10326000804F08D0884AD2F8903023F44033616E02
:103270000B43C2F89030236813F4004F08D0824A01
:10328000D2F8903023F44023A16E0B43C2F8903063
:10329000236813F4803F08D07B4AD2F8903023F49F
:1032A0004013E16E0B43C2F89030236813F4003FE3
:1032B00008D0754AD2F8903023F44003216F0B43B5
:1032C000C2F89030236813F0400F08D06E4AD2F84D
:1032D000903023F00303616C0B43C2F890302368F5
:1032E00013F0800F08D0684AD2F8903023F00C0316
:1032F000A16C0B43C2F89030236813F4807F08D090
:10330000614AD2F8903023F03003E16C0B43C2F8ED
:103310009030236813F4007F08D05B4AD2F89030D5
:1033200023F0C003216D0B43C2F89030236813F4DF
:10333000806F08D0544AD2F8903023F44073616D06
:103340000B43C2F89030236813F4006F08D04E4A44
:10335000D2F8903023F44063A16D0B43C2F8903053
:10336000236813F4805F08D0474AD2F8903023F4E2
:103370004053E16D0B43C2F89030236813F4005FB3
:1033800008D0414AD2F8903023F44043216E0B43D9
:10339000C2F89030236813F4800F08D03A4AD2F86C
:1033A000903023F08063A16F0B43C2F89030236804
:1033B00013F4001F0DD0344AD2F8903023F000638C
:1033C000E16F0B43C2F89030E36FB3F1006F00F090
:1033D000A780236813F0080F00D0012513F4802F75
:1033E00008D0294AD2F8903023F04073616F0B4324
:1033F000C2F89030236813F4000F09D0224AD2F8A3
:10340000903023F08053D4F880100B43C2F89030F2
:1034100026B9236813F0007F00F002811A4A13686E
:1034200023F080631360FEF73BF80646164B1B68DB
:1034300013F0006F76D0FEF733F8801B6428F5D9BF
:103440000320EFE00125DBE60126EBE60E4B1A6CCC
:1034500042F080521A641B6C03F080530193019B6D
:103460000A4A136843F480731360FEF719F807469D
:10347000064B1B6813F4807F0AD1FEF711F8C01BBE
:103480006428F5D90320CDE00038024000700040E8
:10349000AA4B1B6F13F4407315D0226B02F44072D9
:1034A0009A4210D0A54B1A6F22F44072196F41F462
:1034B00080311967196F21F4803119671A671B6F02
:1034C00013F0010F12D1236B03F44072B2F5407F69
:1034D0001DD09A4A936823F4F813936097490B6FB1
:1034E000226BC2F30B0213430B67A6E6FDF7D8FF6E
:1034F0000746924B1B6F13F0020FE4D1FDF7D0FF8C
:10350000C01B41F288339842F3D903208AE08B48EC
:10351000826822F4F8128A4919400A438260DDE782
:10352000012556E7236813F0010F13D0636B8BB9A5
:10353000824AD2F88430D2F88410606803F44033B1
:1035400043EA801301F070610B43A16843EA017301
:10355000C2F88430236813F4002F03D0E26BB2F575
:10356000801F06D013F4801F1ED0236CB3F5800F8C
:103570001AD1724AD2F88430D2F88410606803F409
:10358000403343EA8013E06843EA006301F0E0411E
:103590000B43C2F88430D2F88C3023F01F03616AE9
:1035A00001390B43C2F88C30236813F0807F11D0AF
:1035B000624AD2F88400D2F88410666823691B043A
:1035C00043EA861300F07060034301F0E0410B43CF
:1035D000C2F88430236813F0007F0DD0626823693D
:1035E0001B0443EA8213E26843EA0263A26843EAE7
:1035F0000273524AC2F88430504A136843F0806321
:103600001360FDF74DFF06464C4B1B6813F0006F2F
:1036100006D1FDF745FF801B6428F5D9032001E0A2
:1036200015B9002003B0F0BD444A136823F080535D
:103630001360FDF735FF0546404B1B6813F0005F34
:1036400006D0FDF72DFF401B6428F5D90320E9E7DC
:10365000236813F4002F01D0E26B22B113F4801F12
:103660001DD0236CDBB9354AD2F88830D2F88810E7
:10367000606903F4403343EA8013A06943EA0063BE
:1036800001F0E0410B43C2F88830D2F88C3023F4CB
:10369000F853A16A013943EA0123C2F88C30236848
:1036A00013F4001F03D0E36FB3F1006F31D0236830
:1036B00013F0080F19D0214AD2F88810D2F88830B8
:1036C000606903F4403343EA801301F070610B43F7
:1036D000E16943EA0173C2F88830D2F88C3023F4F0
:1036E0004033E16A0B43C2F88C30144A136843F04C
:1036F00080531360FDF7D4FE0446104B1B6813F093
:10370000005F19D1FDF7CCFE001B6428F5D903201A
:1037100088E70A4AD2F88800D2F888106569236AD7
:103720001B0443EA851300F07060034301F0E0419D
:103730000B43C2F88830BAE7002073E70038024034
:10374000FFFCFF0F82B000230193019B0133019323
:103750000E4A934214D80369002BF6DA0023019332
:10376000036943F001030361019B01330193074A9D
:10377000934208D8036913F0010FF5D1002000E04F
:10378000032002B070470320FBE700BF400D030099
:1037900084B010B5044603A880E80E00089B012BF6
:1037A0001DD1A36B23F48033A363E268164B13404F
:1037B000E360E36823F44013E3600F9B012B09D01F
:1037C0002046FFF7BFFF069B012B14D0BDE8104039
:1037D00004B07047E36843F48013E360F0E7E36804
:1037E00043F04003E3602046FFF7ACFFA36B43F4D4
:1037F0008033A363E7E7A36843F00603A360A368ED
:1038000043F02003A360E1E7BFFFBDFF022A0AD017
:103810000921C26822F47052C260C36843EA81235E
:10382000C36000207047274B0B44274A934239D985
:10383000264B0B44264A934236D9264B0B44264A44
:10384000934233D9254B0B4402F5C332A032934245
:103850002ED9234B0B44234A93422BD9224B0B44A2
:1038600002F5922202F57872934225D91F4B0B4440
:1038700002F5C32202F5207293421FD91C4B0B4460
:1038800002F5B71202F55872934219D9194B0B443D
:1038900002F5122202F5F862934201D90621B8E737
:1038A0000721B6E70F21B4E70E21B2E70D21B0E7FB
:1038B0000C21AEE70B21ACE70A21AAE70921A8E712
:1038C0000821A6E7405327FFFF340C00401E1BFFD2
:1038D0003F420F0000DC0BFF7F4F1200808CF9FE8F
:1038E00060B6E5FE5FE3160000D3CEFEC05BB3FE1C
:1038F00000CA91FEE05459FE836843F001038360DF
:1039000000207047836823F0010383600020704724
:1039100082B000230193019B013301930E4A93422D
:1039200014D80369002BF6DA00230193890141F0D2
:1039300020010161019B01330193074A934208D89A
:10394000036913F0200FF5D1002000E0032002B03E
:1039500070470320FBE700BF400D030082B0002347
:103960000193019B013301930D4A934212D80369DD
:10397000002BF6DA0023019310230361019B01332E
:103980000193074A934208D8036913F0100FF5D149
:10399000002000E0032002B070470320FBE700BFD7
:1039A000400D0300D0F800381943C0F8001800207B
:1039B0007047000084B02DE9F041044607A880E874
:1039C0000E002546002306E003F1400204EB8202CC
:1039D0000021516001330E2BF6D9119B23BBD4F883
:1039E000043843F00203C4F80438A36B23F4001333
:1039F000A363236843F040032360236843F08003FC
:103A000023600023C4F8003E04F50066D4F80038B3
:103A1000C4F800380C9B012B10D1099B4BB9002135
:103A20002046FFF7BFFF0DE0A36B43F40013A36331
:103A3000E7E701212046FFF7B5FF03E00321204619
:103A4000FFF7B0FF10212046FFF762FF804608B164
:103A50004FF001082046FFF781FF08B14FF0010841
:103A6000002333617361F3610AE0C3B94FF0006072
:103A7000C2F8000900220A614FF67F328A600133E2
:103A80000799994210D905EB431202F51061D2F85B
:103A900000090028E9DB0020C2F80009EAE74FF03E
:103AA0009040C2F80009E5E700230AE0BBB14FF0FF
:103AB0009047C2F8007B002202614FF67F3282609D
:103AC0000133994210D905EB431202F53060D2F868
:103AD000007B002FEADB0027C2F8007BEBE74FF00A
:103AE0000067C2F8007BE6E7336923F48073336133
:103AF0000023A3616FF0804363610A9B1BB9A36934
:103B000043F01003A361A2690A4B1343A3610D9B09
:103B10001BB1A36943F00803A361119B012B04D0DF
:103B20004046BDE8F04104B07047A269024B134320
:103B3000A361F5E700383C8004000040D0F8083865
:103B400013F0060305D0062B18BF022B03D1022069
:103B50007047002070470F207047000070B40B784A
:103B60004A78012A20D0D0F81C2803F00F0601243F
:103B7000B44042EA0442C0F81C2800EB4310D0F8DD
:103B8000003B13F4004F0CD1D0F8002B8B68C3F32B
:103B90000A03C97843EA81431343134A1A43C0F81E
:103BA000002B002070BC7047D0F81C4803F00F06B3
:103BB000B24092B22243C0F81C2800EB4310D0F868
:103BC000002912F4004FECD1D0F800498A68C2F302
:103BD0000A02C97842EA814242EA83532343024AF5
:103BE0001A43C0F80029DCE70080001030B40B78DD
:103BF0004A78012A24D000EB4313D3F8002B002A83
:103C000050DBD0F83C580A7802F00F02012404FA85
:103C100002F225EA0242C0F83C28D0F81C280978B4
:103C200001F00F018C4022EA0444C0F81C48D3F88C
:103C3000001B234A0A40C3F8002B002030BC704709
:103C400000EB4313D3F80029002A1EDBD0F83C58C0
:103C50000A7802F00F02012404FA02F292B225EA75
:103C60000202C0F83C28D0F81C28097801F00F01A6
:103C70008C40A4B222EA0404C0F81C48D3F800190E
:103C8000104A0A40C3F80029D7E7D3F8002942F0C8
:103C90000062C3F80029D3F8002942F08042C3F83B
:103CA0000029D3E7D3F8002B42F00062C3F8002BC1
:103CB000D3F8002B42F08042C3F8002BA1E700BFED
:103CC0000078F3EF007833EC70B40B784C78012C6B
:103CD00024D000EB431000F530631D693E4C2C40AE
:103CE0001C611D693D4C2C401C614C690CB18C68F9
:103CF0004C611C6944F400241C611C698D68C5F387
:103D000012052C431C61012A61D0D0F8003B43F01E
:103D10000443C0F8003B002070BC70474C695CBB9A
:103D200000EB4314D4F810692C4D3540C4F81059F9
:103D3000D4F8105945F40025C4F81059D4F8106986
:103D4000254D3540C4F81059012A31D000EB4313FA
:103D5000D3F8002942F00442C3F800294B69002B34
:103D6000D9D0D0F83428097801F00F040121A140FE
:103D70000A43C0F83428CEE700EB431404F510647E
:103D80002669154D354025612669144D354025615C
:103D90004E698D68AE4200D94D61256945F4002514
:103DA000256125694E69C6F3120635432561CBE7C7
:103DB0000A691AB100EB4311C1F8142900EB431052
:103DC000D0F8002942F00442C0F80029A3E7CA68ED
:103DD000002A9AD05A6198E70000F8FFFFFF07E039
:103DE00070B49DF80C4064B903339D0807E000EB04
:103DF000023303F5805351F8046B1E600134AC426A
:103E0000F5D3002070BC7047F0B583B00B784C78C8
:103E1000012C29D000EB431303F5306426697D4D56
:103E20003540256126697C4D354025614D69002D61
:103E300040F0C18025698E68C6F3120635432561BE
:103E4000256945F400252561012A00F0C980CA785A
:103E5000012A00F0CB80D3F8002B42F00442C3F8D3
:103E6000002B002003B0F0BD4C6974BB00EB431481
:103E7000D4F81069684D3540C4F81059D4F8105979
:103E800045F40025C4F81059D4F81069614D354047
:103E9000C4F81059012A4AD000EB4313D3F8004963
:103EA00044F00444C3F80049CC78012C68D04B6935
:103EB000002BD6D0D0F83428097801F00F04012166
:103EC000A1400A43C0F83428CBE700EB4314D4F8F0
:103ED0001069504D3540C4F81059D4F810694E4D52
:103EE0003540C4F81059D4F810694D698F683D44C5
:103EF000013DB5FBF7F5494F07EAC5453543C4F821
:103F00001059D4F810594E69C6F312063543C4F857
:103F1000105904F51064CD78012DBBD1256925F029
:103F2000C0452561256945F000552561B2E70A695C
:103F30001AB100EB4314C4F81429CA78012A08D036
:103F400000EB4313D3F8002942F00442C3F80029E0
:103F500087E7D0F8082812F4807F08D100EB4311DE
:103F6000D1F8002942F00052C1F80029E8E700EB3F
:103F70004311D1F8002942F08052C1F80029DFE74F
:103F8000D0F8084814F4807F0ED1D3F8004944F0EB
:103F90000054C3F8004914460B46C9681A789B8A36
:103FA0000094FFF71DFF5CE7D3F8004944F080540C
:103FB000C3F80049EFE78E683544013DB5FBF6F5DF
:103FC0002669164F07EAC5473E43266127698E6872
:103FD000ADB206FB05F5C5F312053D43256133E798
:103FE000CA68002A3FF433AF626130E7D0F808288E
:103FF00012F4807F06D1D3F8002B42F00052C3F8B0
:10400000002B28E7D3F8002B42F08052C3F8002B96
:1040100021E700BF0000F8FFFFFF07E00000F81FE6
:1040200070B483B00646950802F00302002305E051
:1040300006F58054246841F8044B0133AB42F7D3B2
:104040009AB100F580500368019308460024E3B25A
:10405000D900019BCB4000F8013B0134013A92B2F8
:10406000002AF4D103B070BC70470846FAE70B7819
:104070004A78012A14D000EB4310D0F8002B002A14
:1040800006DB2BB1D0F8003B23F08043C0F8003BA7
:10409000D0F8003B43F40013C0F8003B0020704709
:1040A00000EB4310D0F80029002A06DB2BB1D0F832
:1040B000003923F08043C0F80039D0F8003943F4C8
:1040C0000013C0F80039E9E70B784A78012A0ED0CE
:1040D00000EB4310D0F8003B23F40013C0F8003B82
:1040E000CB78023BDBB2012B15D90020704700EBE7
:1040F0004310D0F8003923F40013C0F80039CB780E
:10410000023BDBB2012BF0D8D0F8003943F08053EA
:10411000C0F80039E9E7D0F8003B43F08053C0F81D
:10412000003BE2E7D0F8003823F4FE63C0F8003823
:10413000D0F80038090101F4FE610B43C0F80038E3
:1041400000207047D0F8003E23F00303C0F8003E83
:10415000D0F8043823F00203C0F804380020704778
:10416000D0F8003E23F00303C0F8003ED0F8043836
:1041700043F00203C0F804380020704742698069A8
:1041800010407047D0F8183800F50060C06918403A
:10419000000C7047D0F8183800F50060C06918406E
:1041A00080B2704700EB4111D1F8082B00F5006098
:1041B00040691040704710B4D0F81048D0F8343837
:1041C00001F00F02D340DB01DBB2234300EB4110CF
:1041D00000F51060806818405DF8044B7047406936
:1041E00000F00100704738B50546C36823F0C043AE
:1041F000C360012913D029BBC36843F08043C36067
:1042000000240120FDF752F901342846FFF7E7FFAB
:1042100008B1312CF5D9322C12D0002038BDC3683A
:1042200043F00053C36000240120FDF73FF901343F
:104230002846FFF7D4FF0128EDD0312CF4D9EAE766
:104240000120EBE70120E9E7D0F80029054B1340F6
:10425000C0F80039D0F8043843F48073C0F804384B
:104260000020704700F8FFFF10B4046C154B9C420F
:1042700003D9D0F8003B002B16DB0024C0F8104B0C
:10428000D0F8104B44F40024C0F8104BD0F8104B79
:1042900044F01804C0F8104BD0F8104B44F0C04460
:1042A000C0F8104B012903D000205DF8044B704783
:1042B000C0F8142BD0F8003B43F08023C0F8003B3B
:1042C000F2E700BF0A30544F10B5D0F8BC42D0F826
:1042D000C0325BB194F80002FF2807D09B6894F8C5
:1042E000012221469847FF2384F80032002010BDA8
:1042F000432303800048704740000020432303808D
:104300000048704784000020432303800048704722
:10431000D40000200A23038000487047C800002012
:1043200038B5D0F8BC5275B1044601F0AEFAC5F804
:104330000C02D4F8C032DB6805F50371D5F804022D
:104340009847002038BD0320FCE770B5D0F8C44280
:10435000D0F8BC5255B301EB8102930003449B6932
:104360006BB90024C5F81442D0F8C0321B690A4664
:1043700005F50471D5F808029847204670BDC1EBD9
:10438000C106B2001444646CB3FBF4F204FB1233B4
:10439000002BE6D101EB81029300034400249C61D1
:1043A0002346224601F0E6FA2046E7E70320E5E748
:1043B00070B582B005460C46D0F8BC6200238DF87B
:1043C0000730ADF804300B7813F0600227D0202AB4
:1043D0005BD1CA883AB9D0F8C0329B6800224878CD
:1043E0009847002054E013F0800F0CD0D0F8C03272
:1043F0009B68314660789847E2883146284600F04D
:10440000E7FD002044E04B7886F800328B7986F88F
:104410000132CA88314600F0F0FD002038E04B78C8
:104420000B2B2ED8DFE803F006362D2D2D2D2D2D4C
:104430002D2D142390F89C32032B05D1022201A9C3
:1044400000F0C6FD002023E000F066FA03201FE024
:1044500090F89C32032B06D101220DF1070100F0E8
:10446000B7FD002014E000F057FA032010E090F8A8
:104470009C32032B01D100200AE000F04DFA03200A
:1044800006E000F049FA032002E000F045FA0320BC
:1044900002B070BD0020FBE738B50446812101F071
:1044A00049FA002525870121204601F043FAA4F8A6
:1044B00078518221204601F03DFAA4F84C50A4F82E
:1044C0004E50D4F8BC324BB1D4F8C0325B68984738
:1044D000D4F8BC020AF0ECFEC4F8BC52002038BD8F
:1044E00070B504464FF407700AF0DAFEB0B3054623
:1044F000C4F8BC02237CB3BB4FF4007302228121B9
:10450000204601F00CFA012626874FF400730222A0
:104510003146204601F003FAA4F878611023A4F88C
:104520004E30082303228221204601F0F8F90123AE
:10453000A4F84C30D4F8C0321B6898470023C5F863
:104540001432C5F81832237C0BB34023D5F804226B
:104550000121204601F016FA002070BD0023C4F8A6
:10456000BC320220F9E7402302228121204601F0DB
:10457000D6F901262687402302223146204601F043
:10458000CEF9A4F878611023A4F84E30C9E74FF4AF
:104590000073D5F804220121204601F0F3F9002030
:1045A000DBE719B1C0F8C012002070470320704744
:1045B000D0F8BC32C3F80812C3F8102200207047AC
:1045C000D0F8BC32C3F8041200207047D0F8BC22E7
:1045D0009AB108B5037C3BB14023D2F804220121F3
:1045E00001F0D0F9002008BD4FF40073D2F8042286
:1045F000012101F0C7F90020F5E703207047C0B1A1
:1046000008B50346D0F8B80210B10020C3F8B802CC
:10461000D3F8CC0210B10020C3F8CC0209B1C3F822
:10462000B4121846012380F89C32027001F0E2F8BF
:1046300008BD0320704710B582B00023ADF80630E6
:1046400059B10446C4F8B8128B6A0DF106009847B8
:10465000C4F8CC02002002B010BD0320FBE708B56F
:1046600001F055F908BD08B5D0F8B83213B11B6890
:10467000984708BD0320FCE708B5D0F8B8320BB165
:104680005B689847002008BD38B5044600F2AA25AB
:10469000284600F02DF90123C4F89432B4F8B03262
:1046A000C4F8983294F8AA1201F01F03012B0DD020
:1046B0003BB1022B0FD001F08001204601F042F9FE
:1046C00003E02946204600F0E0FA38BD294620469E
:1046D00000F016FBF9E72946204600F045FBF4E719
:1046E00010B5044629BB1346D0F89422032A01D002
:1046F000002029E0D0F85C11D0F8602191420DD85B
:10470000D0F8B8321B6923B190F89C22032A00D15B
:104710009847204600F088FC002015E0891AC0F870
:104720005C118A4228BF0A46194600F075FC002039
:104730000AE00A46D0F8B8329B6933B190F89C126F
:10474000032904D11146984710BD0320FCE703203C
:10475000FAE710B50446002946D11346D0F8942252
:10476000022A05D094F8A032012B39D0002046E06F
:10477000C269016A8A4213D88A421DD0D4F8B8327D
:10478000DB682BB194F89C22032A01D1204698477C
:104790008021204601F0D6F8204600F050FCE1E7E9
:1047A000521AC261194600F020FC00231A4619462D
:1047B000204601F0E7F8D5E783699942DED8D0F8C2
:1047C00098229342DAD20022114600F00EFC00211A
:1047D000C4F898120B460A46204601F0D3F8C1E708
:1047E000002084F8A0020AE00A46D0F8B8325B69DB
:1047F00033B190F89C12032904D11146984710BD9B
:104800000320FCE70320FAE770B50446012380F893
:104810009C320023C0F894324360C0F8A432D0F830
:10482000BC3223B1D0F8B8325B68002198474023EE
:1048300000221146204601F072F80126A4F86461B6
:104840004025C4F860512B4600228021204601F00B
:1048500066F8A6842562002070BD017400207047B0
:1048600090F89C3280F89D32042380F89C3200201E
:10487000704790F89C32042B01D00020704790F8CC
:104880009D3280F89C32F8E708B590F89C32032BF3
:1048900001D0002008BDD0F8B832DB69002BF8D079
:1048A0009847F6E7002070470020704700207047C7
:1048B00008B5012380F89C32D0F8B83213B15B6898
:1048C00001799847002008BD002302E00133DBB2E4
:1048D00001300278002AF9D11846704708B54B8894
:1048E000012B00D008BDC0F8A43200F09DFBF9E711
:1048F0000B7803704B7843708B78CA7843EA0223B5
:1049000043800B794A7943EA022383808B79CA7901
:1049100043EA0223C380704710B50446802101F0AA
:1049200011F80021204601F00DF810BD30B583B01C
:1049300004460D460023ADF806304A88130A013BB1
:104940000E2B00F2BC80DFE803F0153044BABA9EAB
:10495000ABBABABABABABABA0800D0F8B432DB699C
:1049600023B10DF10601007C98470AE02946FFF7C4
:10497000D3FF18E0D0F8B4321B680DF10601007CBB
:104980009847EA88002A00F0A380BDF80630002B83
:1049900000F099809A4228BF1A46ADF806200146D9
:1049A000204600F015FB03B030BD037C43B9D0F8BE
:1049B000B8329B6A0DF10600984702234370E0E786
:1049C000D0F8B832DB6A0DF1060098470223437035
:1049D000D7E7D2B2052A52D8DFE802F003101D2A29
:1049E0003744D0F8B4325B6823B10DF10601007C86
:1049F0009847C6E72946FFF78FFFD4E7D0F8B432CF
:104A00009B6823B10DF10601007C9847B9E7294660
:104A1000FFF782FFC7E7D0F8B432DB6823B10DF1AE
:104A20000601007C9847ACE72946FFF775FFBAE717
:104A3000D0F8B4321B6923B10DF10601007C984710
:104A40009FE72946FFF768FFADE7D0F8B4325B690E
:104A500023B10DF10601007C984792E72946FFF744
:104A60005BFFA0E7D0F8B4329B6923B10DF10601DA
:104A7000007C984785E72946FFF74EFF93E72946D4
:104A8000FFF74AFF8FE7037C33B9D0F8B8325B6B8E
:104A90000DF10600984774E72946FFF73DFF82E7CE
:104AA000037C43B9D0F8B8321B6B0DF10600984770
:104AB0000723437065E72946FFF72EFF73E7294672
:104AC000FFF72AFF6FE729462046FFF725FF6AE731
:104AD000204600F0A9FA66E738B504468B88F3B99A
:104AE000CB88E3B94B887F2B19D803F07F0590F86A
:104AF0009C32032B0CD080F89E52294600F032FFE6
:104B0000204600F091FA35B1022384F89C3209E086
:104B1000FFF702FF06E0012384F89C3202E0204602
:104B2000FFF7FAFE38BD000070B504460D468978DF
:104B30002E4B197001290FD890F89C32022B11D0FE
:104B4000032B25D02946FFF7E7FE284B197820468E
:104B5000FFF792FD032603E02946FFF7DDFE03265B
:104B6000304670BD81B14160FFF77DFD064620B142
:104B700029462046FFF7D0FEF2E7204600F054FA1F
:104B8000032384F89C32EBE700F04EFA0026E7E7B7
:104B9000C9B14368994225D0D9B2FFF76DFD134BD7
:104BA000197861602046FFF75EFD0646B0B12946E0
:104BB0002046FFF7B1FE21792046FFF75DFD022375
:104BC00084F89C32CCE7022380F89C324160FFF7E6
:104BD00053FD204600F028FA0026C1E7204600F0E9
:104BE00023FABDE700F020FA0026B9E756020020BC
:104BF00008B5CB88012B0BD190F89C329BB1022BCE
:104C000009D9032B0FD10122011D00F0E1F901E0C8
:104C1000FFF782FE08BD0146002341F8083F01224C
:104C200000F0D6F9F6E7FFF777FEF3E708B590F85E
:104C30009C32013B022B12D8CB88022B0CD10123D2
:104C4000C360D0F8A4320BB10323C360022200F189
:104C50000C0100F0BDF908BDFFF75EFEFBE7FFF7B2
:104C60005BFEF8E708B590F89C32013B022B09D8AF
:104C70004B88012B00D008BD0023C0F8A43200F0FF
:104C8000D3F9F8E7FFF748FEF5E708B50B7803F02E
:104C90006003202B06D0402B04D043B1FFF73CFE2D
:104CA000002003E0D0F8B8329B68984708BD4B78E5
:104CB000092B21D8DFE803F0141C20182009052057
:104CC000100DFFF733FE0020F0E7FFF705FF00208F
:104CD000ECE7FFF729FFE9E7FFF78AFF0020E5E7A8
:104CE000FFF7A4FF0020E1E7FFF7F8FD0020DDE774
:104CF000FFF7B8FF0020D9E7FFF70EFE0020D5E749
:104D000070B505460C460B7803F06003202B07D0E6
:104D1000402B05D023B1FFF7FFFD0026304670BDC4
:104D200095F89C32013B022B18D82379012B0FD820
:104D3000D5F8B8329B682146284698470646E3884E
:104D4000002BEBD10028E9D1284600F06DF9E5E70A
:104D500021462846FFF7E0FD0026DFE721462846EA
:104D6000FFF7DAFD0026D9E738B505460C468A88F4
:104D70000B7803F06003202B08D0D1B2402B05D074
:104D80005BB12146FFF7C8FD002005E0D5F8B83239
:104D90009B6821462846984738BD6378012B38D058
:104DA000002B6BD0032B40F0F08090F89C32022B4C
:104DB00006D0032B19D02146FFF7AEFD0020EBE70C
:104DC000B1F1800318BF0123002908BF00233BB1C4
:104DD00000F0B8FD8021284600F0B4FD0020DBE79C
:104DE0002146FFF799FD0020D6E763884BB9B1F162
:104DF000800318BF0123002908BF00230BB1E388FB
:104E000023B1284600F010F90020C5E700F09AFD14
:104E1000F7E790F89C32022B06D0032B19D02146DD
:104E2000FFF77AFD0020B7E7B1F1800318BF012337
:104E3000002908BF00233BB100F084FD80212846F3
:104E400000F080FD0020A7E72146FFF765FD002068
:104E5000A2E76388002B40F09D8011F07F0F0AD1FC
:104E6000284600F0E1F8D5F8B8329B68214628467C
:104E70009847002090E700F06DFDF1E790F89C3234
:104E8000022B06D0032B2FD02146FFF745FD002033
:104E900082E7B1F1800318BF0123002908BF002376
:104EA0009BB912F0800F15D101F07F0101EB810158
:104EB0008B0003F5A8710144043100240C60022228
:104EC000284600F085F8204666E72146FFF724FDD6
:104ED000002061E701F07F0101EB81018B0003F10C
:104EE000100101440431E8E752B2002A24DB01F04A
:104EF0000F0303EB830398002844B0F8643153B3E5
:104F0000002A2EDB01F07F0202EB8202930003F500
:104F1000A8742C440434802914BF002301230029E1
:104F200008BF01233BB30023236002222146284609
:104F300000F04EF800202FE701F00F0303EB83038E
:104F400098002844838C002BDAD121462846FFF7AD
:104F5000E3FC002020E721462846FFF7DDFC002087
:104F60001AE701F07F0202EB8202930003F11004C2
:104F70002C440434CFE7284600F070FC10B1012324
:104F80002360D2E700232360CFE72146FFF7C4FC6C
:104F9000002001E70020FFE6C8B170B50D461646B7
:104FA0000446FFF791FC0130400030802870032355
:104FB0006B70022307E0EA5401345A1CD2B200217C
:104FC000A9540233DBB22278002AF4D170BD7047B5
:104FD00010B513460222C0F894228361C3610A46C9
:104FE000002100F0C7FC002010BD08B513460A469A
:104FF000002100F0BFFC002008BD10B513460322BD
:10500000C0F89422C0F85831C0F85C310A4600213B
:1050100000F0B8FC002010BD08B513460A46002178
:1050200000F0B0FC002008BD08B50423C0F894329D
:1050300000231A46194600F09DFC002008BD08B563
:105040000523C0F8943200231A46194600F09AFC52
:10505000002008BD08B54FF4C831034803F070F9CB
:10506000024802F0DFFC08BD58020020E4FB000803
:10507000014B1868704700BF74950120044B1B68F2
:105080001844034B1B68C31A002BFADC704700BF9F
:105090007495012070477047704708B5FCF7B6F962
:1050A00008BD08B5FCF7B8F908BD000030B5A3B0DD
:1050B00000241D941E941F9420942194682221465C
:1050C00003A80AF030F9234622461D491D4802F084
:1050D0003FFC05464FF4F0724FF44871204601F052
:1050E000C1FD4FF4F0724FF44871204601F0A2FD6B
:1050F0001F941DA9284601F066FD134B0B93134B1B
:105100000C93134B0E93134B134A03A9284601F03B
:1051100078FD4FF4756300936E234FF44872214677
:10512000204601F06BFE40F6857300934FF4C87380
:105130004FF4F0722146012001F060FE23B030BD33
:1051400054210108182101082D0F0008850F0008BF
:10515000DD0F0008CD650008315F0008012906D188
:1051600008B5FBF747FFFCF76BF8002008BD4FF0D0
:10517000FF307047F0B58BB0002405940694079477
:1051800008940994284B1A6B42F020021A631A6B98
:1051900002F020020092009A1A6B42F080021A6319
:1051A0001A6B02F080020192019A1A6B42F001021E
:1051B0001A631A6B02F001020292029A1A6B42F011
:1051C00040021A631A6B02F040020392039A1A6BB0
:1051D00042F002021A631B6B03F002030493049B68
:1051E000124F22464FF400413846FCF7D3FA104DD7
:1051F000224618212846FCF7CDFA4FF400430593C8
:10520000012606960794089405A93846FCF7CEF9BE
:105210001823059306960794089405A92846FCF7D9
:10522000C5F90BB0F0BD00BF0038024000180240C5
:105230000004024038B50D4C0D4B23600D4B6360EC
:105240000025A5600123E36025616561A561E56135
:1052500025622046FCF73AFC29462046FCF710FE62
:1052600029462046FCF73AFE38BD00BF789501205C
:10527000005400405D3E302038B50D4C0D4B23608E
:105280000D4B63600025A5600123E3602561656126
:10529000A561E56125622046FCF718FC29462046F9
:1052A000FCF7EEFD29462046FCF718FE38BD00BF8E
:1052B000C4950120005800405D3E3020024A13682A
:1052C00001331360704700BF7495012030B5B5B04D
:1052D0003022002128A80AF026F8002423942494E0
:1052E0002594269427948422214602A80AF01BF8CC
:1052F000214B1A6C42F080521A641B6C03F08053ED
:105300000093009B1D4B1A6842F440421A601B68D0
:1053100003F440430193019B012328934FF480330E
:10532000299302252E954FF480032F931923309350
:105330004FF4C073319332950823339328A8FDF7B7
:1053400007FCFDF7C7FB0F232393249525944FF407
:10535000A05326934FF480532793062123A8FDF7EB
:1053600065FE4FF4031302931B941C94219402A82E
:10537000FDF716FF35B030BD003802400070004028
:1053800000B5ABB0FCF774F8FFF7A0FFFFF7F2FE33
:10539000FFF750FFFFF770FF00F020F9FBF74EFD1D
:1053A0002B4E6C4606F110050FCD0FC40FCD0FC468
:1053B0000FCD0FC495E8070084E8070096E80F00BA
:1053C000FBF7C4FEFBF73CFF02F09EFB4FF47F00AF
:1053D00002F0D6F802F05EFB002002F0D1F81D4882
:1053E00002F0C4F81C4802F0A7F96422002111A8B9
:1053F00009F099FFFBF76CFF01F05EFD02F04CF93C
:10540000164B1880012001F0E5FCFBF7A1FF144CBE
:105410002080FBF7CDFF0346124A108022881249F4
:1054200011A80AF041F811A802F086F92388013B7F
:105430009BB24E2BDED80B4B1B88002BDAD04F2BA8
:10544000D8D8012218210948FCF7A4F9D2E700BFF7
:1054500078950120141A01085CFB00085C92012079
:10546000589201205A92012068FB00080004024073
:105470007047000082B00A4B1A6C42F080521A64E6
:105480001A6C02F080520092009A5A6C42F48042E8
:105490005A645B6C03F480430193019B02B0704734
:1054A0000038024010B58AB0002305930693079395
:1054B000089309930368254A934204D0244A9342EF
:1054C00023D00AB010BD234C236B43F002032363A7
:1054D000236B03F002030193019BC0230593122366
:1054E000069301230793032308930423099305A933
:1054F0001948FCF75BF8236C43F400132364236C16
:1055000003F400130293029BDBE7124C236B43F07E
:1055100020032363236B03F020030393039B0323E4
:1055200005931222069201220792089304230993FD
:1055300005A90A48FCF73AF8236C43F48003236476
:10554000236C03F480030493049BBAE700540040E7
:10555000005800400038024000040240001402409D
:105560007047FEE7FEE7FEE7FEE7704770477047CB
:1055700008B5FBF789FFFCF715F808BD08B5024828
:10558000FCF798FE08BD00BFE0A8012008B503465F
:105590000B4A126842B10A4A106803446A469342B1
:1055A00006D8074A136008BD054A06491160F2E7AC
:1055B00009F04CFE0C2303604FF0FF30F3E700BF0F
:1055C0006092012070B00120034AD2F8883043F481
:1055D0007003C2F88830704700ED00E008B5002283
:1055E0000F491048FFF70BF870B90F490D48FFF746
:1055F00022F860B90D490B48FEF7D3FF50B90948AE
:10560000FFF72DF848B908BDFFF732FFEDE7FFF7C8
:105610002FFFEFE7FFF72CFFF1E7FFF729FFF2E796
:105620003001002010960120080000201C010020FD
:1056300000207047002070470020704710B5054CCF
:1056400001462046FEF7BCFF2046FEF7BFFF0020C4
:1056500010BD00BF1096012010B5064C002206496F
:105660002046FEF7A5FF05492046FEF7A9FF0020CA
:1056700010BD00BF10960120E0A00120E09801209D
:1056800008B5FFF723FE08BD10B588B000230393CB
:1056900004930593069307930368B3F1A04F01D0D9
:1056A00008B010BD184C236B43F001032363236B38
:1056B00003F001030093009B4FF4C05303930223B4
:1056C0000493032306930A23079303A90F48FBF7C8
:1056D0006DFF636B43F080036363636B03F08003D0
:1056E0000193019B636C43F480436364636C03F434
:1056F00080430293029B002211464320FBF7FCFEED
:105700004320FBF72BFFCBE70038024000000240AC
:1057100008B500F57171D0F80004FEF7B5FF08BDBB
:1057200008B5C1EBC10293000344D3F80822D0F8B6
:105730000004FEF7D5FF08BD08B5C1EBC102930018
:1057400003449A6CD0F80004FFF703F808BD08B5CD
:10575000D0F80004FFF798F808BD10B50446C368F8
:105760002BB1022B0DD0FFF783FE012100E00021B9
:10577000D4F80004FFF771F8D4F80004FFF744F8F8
:1057800010BD0121F4E7000010B50446D0F8000474
:10579000FFF766F82268D2F8003E43F00103C2F832
:1057A000003E236A23B1034A136943F006031361E1
:1057B00010BD00BF00ED00E008B5D0F80004FFF711
:1057C00058F808BD08B5D0F80004FFF76DF808BD1B
:1057D00008B5D0F80004FFF765F808BD08B5D0F8A3
:1057E0000004FFF763F808BD08B5D0F80004FFF720
:1057F0005FF808BD03780BB10020704710B5034671
:105800001548C0F80034C3F8C4024FF0A043036049
:10581000062343600222C260002303618261C361E8
:1058200003624362C3620363FCF7EEFB80B90A4C78
:1058300080212046FDF735F9402200212046FDF762
:105840000CF9802201212046FDF707F9002010BD48
:10585000FFF70EFEEBE700BFE0A80120D0F8C4324E
:1058600011F0800F08D101F07F01C1EBC1018A0066
:10587000134493F8FE01704701F07F01C1EBC101B1
:105880008A00134493F83E00704708B5D0F8C4026C
:10589000FDF738F808BD000010B5044611B1012924
:1058A00016D010BD036A5BB92268D2F8003E23F01F
:1058B0000103C2F8003ED4F80004FEF7DAFFF0E777
:1058C000FFF7DEFE0C4A136923F006031361EBE7D2
:1058D0000268D2F8003E43F00103C2F8003ED0F85F
:1058E0000004FEF7BDFF236A002BDAD0024A1369D9
:1058F00043F006031361D4E700ED00E018B102287D
:1059000003D003207047002070470120704708B57E
:10591000D0F8C402FCF710FCFFF7F0FF08BD10B58B
:105920001C4613462246D0F8C402FCF745FFFFF799
:10593000E5FF10BD08B5D0F8C402FCF77EFFFFF705
:10594000DDFF08BD08B5D0F8C402FDF70EF8FFF77B
:10595000D5FF08BD08B5D0F8C402FDF747F8FFF73A
:10596000CDFF08BD08B5D0F8C402FCF711FFFFF762
:10597000C5FF08BD08B5D0F8C402FCF7CCFFFFF79F
:10598000BDFF08BD08B5D0F8C402FCF78DFFFFF7D6
:10599000B5FF08BD12230B80004870475C01002052
:1059A00004230B8000487047700100200C230B80FB
:1059B00000487047500100200023934216D230B4B3
:1059C0000BE0373401F8134000015C00013400257E
:1059D0000D550133DBB2934206D2040F092CF0D8E7
:1059E000303401F81340EFE730BC704770470000D7
:1059F00038B50A4B186804331C6804331B68C01898
:105A000000D138BD064D0822A91CFFF7D5FF04229E
:105A100005F112012046FFF7CFFFF2E720F4F01F57
:105A20007401002008B51A230B80FFF7E1FF01483D
:105A300008BD00BF7401002008B50A4628B1054919
:105A40000548FFF7A9FA034808BD02490248FFF7D5
:105A5000A3FAF8E7E4AC0120B8FB000810B5044C49
:105A60000A4621460348FFF797FA204610BD00BFBB
:105A7000E4AC0120A4FB000808B50A4628B105499A
:105A80000548FFF789FA034808BD02490248FFF7B5
:105A900083FAF8E7E4AC012088FB000808B50A4661
:105AA00028B105490548FFF777FA034808BD0249C0
:105AB0000248FFF771FAF8E7E4AC012094FB000814
:105AC000DFF834D00D480E490E4A002302E0D458C6
:105AD000C4500433C4188C42F9D30B4A0B4C002336
